{
	"_format": "hh-sol-artifact-1",
	"contractName": "msgToken",
	"sourceName": "contracts/MsgNFT.sol",
	"abi": [
		{
			"inputs": [],
			"stateMutability": "nonpayable",
			"type": "constructor"
		},
		{
			"anonymous": false,
			"inputs": [
				{
					"indexed": true,
					"internalType": "address",
					"name": "owner",
					"type": "address"
				},
				{
					"indexed": true,
					"internalType": "address",
					"name": "approved",
					"type": "address"
				},
				{
					"indexed": true,
					"internalType": "uint256",
					"name": "tokenId",
					"type": "uint256"
				}
			],
			"name": "Approval",
			"type": "event"
		},
		{
			"anonymous": false,
			"inputs": [
				{
					"indexed": true,
					"internalType": "address",
					"name": "owner",
					"type": "address"
				},
				{
					"indexed": true,
					"internalType": "address",
					"name": "operator",
					"type": "address"
				},
				{
					"indexed": false,
					"internalType": "bool",
					"name": "approved",
					"type": "bool"
				}
			],
			"name": "ApprovalForAll",
			"type": "event"
		},
		{
			"anonymous": false,
			"inputs": [
				{
					"indexed": false,
					"internalType": "address",
					"name": "account",
					"type": "address"
				}
			],
			"name": "Paused",
			"type": "event"
		},
		{
			"anonymous": false,
			"inputs": [
				{
					"indexed": true,
					"internalType": "bytes32",
					"name": "role",
					"type": "bytes32"
				},
				{
					"indexed": true,
					"internalType": "bytes32",
					"name": "previousAdminRole",
					"type": "bytes32"
				},
				{
					"indexed": true,
					"internalType": "bytes32",
					"name": "newAdminRole",
					"type": "bytes32"
				}
			],
			"name": "RoleAdminChanged",
			"type": "event"
		},
		{
			"anonymous": false,
			"inputs": [
				{
					"indexed": true,
					"internalType": "bytes32",
					"name": "role",
					"type": "bytes32"
				},
				{
					"indexed": true,
					"internalType": "address",
					"name": "account",
					"type": "address"
				},
				{
					"indexed": true,
					"internalType": "address",
					"name": "sender",
					"type": "address"
				}
			],
			"name": "RoleGranted",
			"type": "event"
		},
		{
			"anonymous": false,
			"inputs": [
				{
					"indexed": true,
					"internalType": "bytes32",
					"name": "role",
					"type": "bytes32"
				},
				{
					"indexed": true,
					"internalType": "address",
					"name": "account",
					"type": "address"
				},
				{
					"indexed": true,
					"internalType": "address",
					"name": "sender",
					"type": "address"
				}
			],
			"name": "RoleRevoked",
			"type": "event"
		},
		{
			"anonymous": false,
			"inputs": [
				{
					"indexed": true,
					"internalType": "address",
					"name": "from",
					"type": "address"
				},
				{
					"indexed": true,
					"internalType": "address",
					"name": "to",
					"type": "address"
				},
				{
					"indexed": true,
					"internalType": "uint256",
					"name": "tokenId",
					"type": "uint256"
				}
			],
			"name": "Transfer",
			"type": "event"
		},
		{
			"anonymous": false,
			"inputs": [
				{
					"indexed": false,
					"internalType": "address",
					"name": "account",
					"type": "address"
				}
			],
			"name": "Unpaused",
			"type": "event"
		},
		{
			"inputs": [],
			"name": "DEFAULT_ADMIN_ROLE",
			"outputs": [
				{
					"internalType": "bytes32",
					"name": "",
					"type": "bytes32"
				}
			],
			"stateMutability": "view",
			"type": "function"
		},
		{
			"inputs": [],
			"name": "MINTER_ROLE",
			"outputs": [
				{
					"internalType": "bytes32",
					"name": "",
					"type": "bytes32"
				}
			],
			"stateMutability": "view",
			"type": "function"
		},
		{
			"inputs": [],
			"name": "PAUSER_ROLE",
			"outputs": [
				{
					"internalType": "bytes32",
					"name": "",
					"type": "bytes32"
				}
			],
			"stateMutability": "view",
			"type": "function"
		},
		{
			"inputs": [
				{
					"internalType": "address",
					"name": "to",
					"type": "address"
				},
				{
					"internalType": "uint256",
					"name": "tokenId",
					"type": "uint256"
				}
			],
			"name": "approve",
			"outputs": [],
			"stateMutability": "nonpayable",
			"type": "function"
		},
		{
			"inputs": [
				{
					"internalType": "address",
					"name": "owner",
					"type": "address"
				}
			],
			"name": "balanceOf",
			"outputs": [
				{
					"internalType": "uint256",
					"name": "",
					"type": "uint256"
				}
			],
			"stateMutability": "view",
			"type": "function"
		},
		{
			"inputs": [
				{
					"internalType": "uint256",
					"name": "tokenId",
					"type": "uint256"
				}
			],
			"name": "burn",
			"outputs": [],
			"stateMutability": "nonpayable",
			"type": "function"
		},
		{
			"inputs": [
				{
					"internalType": "uint256",
					"name": "tokenId",
					"type": "uint256"
				}
			],
			"name": "getApproved",
			"outputs": [
				{
					"internalType": "address",
					"name": "",
					"type": "address"
				}
			],
			"stateMutability": "view",
			"type": "function"
		},
		{
			"inputs": [
				{
					"internalType": "bytes32",
					"name": "role",
					"type": "bytes32"
				}
			],
			"name": "getRoleAdmin",
			"outputs": [
				{
					"internalType": "bytes32",
					"name": "",
					"type": "bytes32"
				}
			],
			"stateMutability": "view",
			"type": "function"
		},
		{
			"inputs": [
				{
					"internalType": "bytes32",
					"name": "role",
					"type": "bytes32"
				},
				{
					"internalType": "address",
					"name": "account",
					"type": "address"
				}
			],
			"name": "grantRole",
			"outputs": [],
			"stateMutability": "nonpayable",
			"type": "function"
		},
		{
			"inputs": [
				{
					"internalType": "bytes32",
					"name": "role",
					"type": "bytes32"
				},
				{
					"internalType": "address",
					"name": "account",
					"type": "address"
				}
			],
			"name": "hasRole",
			"outputs": [
				{
					"internalType": "bool",
					"name": "",
					"type": "bool"
				}
			],
			"stateMutability": "view",
			"type": "function"
		},
		{
			"inputs": [
				{
					"internalType": "address",
					"name": "owner",
					"type": "address"
				},
				{
					"internalType": "address",
					"name": "operator",
					"type": "address"
				}
			],
			"name": "isApprovedForAll",
			"outputs": [
				{
					"internalType": "bool",
					"name": "",
					"type": "bool"
				}
			],
			"stateMutability": "view",
			"type": "function"
		},
		{
			"inputs": [],
			"name": "name",
			"outputs": [
				{
					"internalType": "string",
					"name": "",
					"type": "string"
				}
			],
			"stateMutability": "view",
			"type": "function"
		},
		{
			"inputs": [
				{
					"internalType": "uint256",
					"name": "tokenId",
					"type": "uint256"
				}
			],
			"name": "ownerOf",
			"outputs": [
				{
					"internalType": "address",
					"name": "",
					"type": "address"
				}
			],
			"stateMutability": "view",
			"type": "function"
		},
		{
			"inputs": [],
			"name": "pause",
			"outputs": [],
			"stateMutability": "nonpayable",
			"type": "function"
		},
		{
			"inputs": [],
			"name": "paused",
			"outputs": [
				{
					"internalType": "bool",
					"name": "",
					"type": "bool"
				}
			],
			"stateMutability": "view",
			"type": "function"
		},
		{
			"inputs": [
				{
					"internalType": "bytes32",
					"name": "role",
					"type": "bytes32"
				},
				{
					"internalType": "address",
					"name": "account",
					"type": "address"
				}
			],
			"name": "renounceRole",
			"outputs": [],
			"stateMutability": "nonpayable",
			"type": "function"
		},
		{
			"inputs": [
				{
					"internalType": "bytes32",
					"name": "role",
					"type": "bytes32"
				},
				{
					"internalType": "address",
					"name": "account",
					"type": "address"
				}
			],
			"name": "revokeRole",
			"outputs": [],
			"stateMutability": "nonpayable",
			"type": "function"
		},
		{
			"inputs": [
				{
					"internalType": "address",
					"name": "to",
					"type": "address"
				},
				{
					"internalType": "string",
					"name": "uri",
					"type": "string"
				}
			],
			"name": "safeMint",
			"outputs": [],
			"stateMutability": "nonpayable",
			"type": "function"
		},
		{
			"inputs": [
				{
					"internalType": "address",
					"name": "from",
					"type": "address"
				},
				{
					"internalType": "address",
					"name": "to",
					"type": "address"
				},
				{
					"internalType": "uint256",
					"name": "tokenId",
					"type": "uint256"
				}
			],
			"name": "safeTransferFrom",
			"outputs": [],
			"stateMutability": "nonpayable",
			"type": "function"
		},
		{
			"inputs": [
				{
					"internalType": "address",
					"name": "from",
					"type": "address"
				},
				{
					"internalType": "address",
					"name": "to",
					"type": "address"
				},
				{
					"internalType": "uint256",
					"name": "tokenId",
					"type": "uint256"
				},
				{
					"internalType": "bytes",
					"name": "_data",
					"type": "bytes"
				}
			],
			"name": "safeTransferFrom",
			"outputs": [],
			"stateMutability": "nonpayable",
			"type": "function"
		},
		{
			"inputs": [
				{
					"internalType": "address",
					"name": "operator",
					"type": "address"
				},
				{
					"internalType": "bool",
					"name": "approved",
					"type": "bool"
				}
			],
			"name": "setApprovalForAll",
			"outputs": [],
			"stateMutability": "nonpayable",
			"type": "function"
		},
		{
			"inputs": [
				{
					"internalType": "bytes4",
					"name": "interfaceId",
					"type": "bytes4"
				}
			],
			"name": "supportsInterface",
			"outputs": [
				{
					"internalType": "bool",
					"name": "",
					"type": "bool"
				}
			],
			"stateMutability": "view",
			"type": "function"
		},
		{
			"inputs": [],
			"name": "symbol",
			"outputs": [
				{
					"internalType": "string",
					"name": "",
					"type": "string"
				}
			],
			"stateMutability": "view",
			"type": "function"
		},
		{
			"inputs": [
				{
					"internalType": "uint256",
					"name": "index",
					"type": "uint256"
				}
			],
			"name": "tokenByIndex",
			"outputs": [
				{
					"internalType": "uint256",
					"name": "",
					"type": "uint256"
				}
			],
			"stateMutability": "view",
			"type": "function"
		},
		{
			"inputs": [
				{
					"internalType": "address",
					"name": "owner",
					"type": "address"
				},
				{
					"internalType": "uint256",
					"name": "index",
					"type": "uint256"
				}
			],
			"name": "tokenOfOwnerByIndex",
			"outputs": [
				{
					"internalType": "uint256",
					"name": "",
					"type": "uint256"
				}
			],
			"stateMutability": "view",
			"type": "function"
		},
		{
			"inputs": [
				{
					"internalType": "uint256",
					"name": "tokenId",
					"type": "uint256"
				}
			],
			"name": "tokenURI",
			"outputs": [
				{
					"internalType": "string",
					"name": "",
					"type": "string"
				}
			],
			"stateMutability": "view",
			"type": "function"
		},
		{
			"inputs": [],
			"name": "totalSupply",
			"outputs": [
				{
					"internalType": "uint256",
					"name": "",
					"type": "uint256"
				}
			],
			"stateMutability": "view",
			"type": "function"
		},
		{
			"inputs": [
				{
					"internalType": "address",
					"name": "from",
					"type": "address"
				},
				{
					"internalType": "address",
					"name": "to",
					"type": "address"
				},
				{
					"internalType": "uint256",
					"name": "tokenId",
					"type": "uint256"
				}
			],
			"name": "transferFrom",
			"outputs": [],
			"stateMutability": "nonpayable",
			"type": "function"
		},
		{
			"inputs": [],
			"name": "unpause",
			"outputs": [],
			"stateMutability": "nonpayable",
			"type": "function"
		}
	],
	"bytecode": "0x60806040523480156200001157600080fd5b506040518060400160405280600881526020017f6d7367546f6b656e0000000000000000000000000000000000000000000000008152506040518060400160405280600381526020017f4d53470000000000000000000000000000000000000000000000000000000000815250816000908051906020019062000096929190620002b1565b508060019080519060200190620000af929190620002b1565b5050506000600b60006101000a81548160ff021916908315150217905550620000e26000801b336200014c60201b60201c565b620001147f65d7a28e3265b37a6474929f336521b332c1681b933f6cb9f3376673440d862a336200014c60201b60201c565b620001467f9f2df0fed2c77648de5860a4cc508cd0818c85b8b8a1ab4ceeef8d981c8956a6336200014c60201b60201c565b620003c6565b6200015e82826200023e60201b60201c565b6200023a576001600c600084815260200190815260200160002060000160008373ffffffffffffffffffffffffffffffffffffffff1673ffffffffffffffffffffffffffffffffffffffff16815260200190815260200160002060006101000a81548160ff021916908315150217905550620001df620002a960201b60201c565b73ffffffffffffffffffffffffffffffffffffffff168173ffffffffffffffffffffffffffffffffffffffff16837f2f8788117e7eff1d82e926ec794901d17c78024a50270940304540a733656f0d60405160405180910390a45b5050565b6000600c600084815260200190815260200160002060000160008373ffffffffffffffffffffffffffffffffffffffff1673ffffffffffffffffffffffffffffffffffffffff16815260200190815260200160002060009054906101000a900460ff16905092915050565b600033905090565b828054620002bf9062000361565b90600052602060002090601f016020900481019282620002e357600085556200032f565b82601f10620002fe57805160ff19168380011785556200032f565b828001600101855582156200032f579182015b828111156200032e57825182559160200191906001019062000311565b5b5090506200033e919062000342565b5090565b5b808211156200035d57600081600090555060010162000343565b5090565b600060028204905060018216806200037a57607f821691505b6020821081141562000391576200039062000397565b5b50919050565b7f4e487b7100000000000000000000000000000000000000000000000000000000600052602260045260246000fd5b61469580620003d66000396000f3fe608060405234801561001057600080fd5b50600436106101cf5760003560e01c80635c975abb11610104578063a22cb465116100a2578063d539139311610071578063d53913931461052a578063d547741f14610548578063e63ab1e914610564578063e985e9c514610582576101cf565b8063a22cb465146104a6578063b88d4fde146104c2578063c87b56dd146104de578063d204c45e1461050e576101cf565b80638456cb59116100de5780638456cb591461043057806391d148541461043a57806395d89b411461046a578063a217fddf14610488576101cf565b80635c975abb146103b25780636352211e146103d057806370a0823114610400576101cf565b80632f2ff15d116101715780633f4ba83a1161014b5780633f4ba83a1461034057806342842e0e1461034a57806342966c68146103665780634f6ccce714610382576101cf565b80632f2ff15d146102d85780632f745c59146102f457806336568abe14610324576101cf565b8063095ea7b3116101ad578063095ea7b31461025257806318160ddd1461026e57806323b872dd1461028c578063248a9ca3146102a8576101cf565b806301ffc9a7146101d457806306fdde0314610204578063081812fc14610222575b600080fd5b6101ee60048036038101906101e99190613215565b6105b2565b6040516101fb919061379f565b60405180910390f35b61020c6105c4565b60405161021991906137d5565b60405180910390f35b61023c60048036038101906102379190613267565b610656565b6040516102499190613738565b60405180910390f35b61026c60048036038101906102679190613174565b6106db565b005b6102766107f3565b6040516102839190613ad7565b60405180910390f35b6102a660048036038101906102a1919061301a565b610800565b005b6102c260048036038101906102bd91906131b0565b610860565b6040516102cf91906137ba565b60405180910390f35b6102f260048036038101906102ed91906131d9565b610880565b005b61030e60048036038101906103099190613174565b6108a9565b60405161031b9190613ad7565b60405180910390f35b61033e600480360381019061033991906131d9565b61094e565b005b6103486109d1565b005b610364600480360381019061035f919061301a565b610a0e565b005b610380600480360381019061037b9190613267565b610a2e565b005b61039c60048036038101906103979190613267565b610a8a565b6040516103a99190613ad7565b60405180910390f35b6103ba610b21565b6040516103c7919061379f565b60405180910390f35b6103ea60048036038101906103e59190613267565b610b38565b6040516103f79190613738565b60405180910390f35b61041a60048036038101906104159190612fb5565b610bea565b6040516104279190613ad7565b60405180910390f35b610438610ca2565b005b610454600480360381019061044f91906131d9565b610cdf565b604051610461919061379f565b60405180910390f35b610472610d4a565b60405161047f91906137d5565b60405180910390f35b610490610ddc565b60405161049d91906137ba565b60405180910390f35b6104c060048036038101906104bb91906130e4565b610de3565b005b6104dc60048036038101906104d79190613069565b610df9565b005b6104f860048036038101906104f39190613267565b610e5b565b60405161050591906137d5565b60405180910390f35b61052860048036038101906105239190613120565b610e6d565b005b610532610ed1565b60405161053f91906137ba565b60405180910390f35b610562600480360381019061055d91906131d9565b610ef5565b005b61056c610f1e565b60405161057991906137ba565b60405180910390f35b61059c60048036038101906105979190612fde565b610f42565b6040516105a9919061379f565b60405180910390f35b60006105bd82610fd6565b9050919050565b6060600080546105d390613dbb565b80601f01602080910402602001604051908101604052809291908181526020018280546105ff90613dbb565b801561064c5780601f106106215761010080835404028352916020019161064c565b820191906000526020600020905b81548152906001019060200180831161062f57829003601f168201915b5050505050905090565b600061066182611050565b6106a0576040517f08c379a0000000000000000000000000000000000000000000000000000000008152600401610697906139d7565b60405180910390fd5b6004600083815260200190815260200160002060009054906101000a900473ffffffffffffffffffffffffffffffffffffffff169050919050565b60006106e682610b38565b90508073ffffffffffffffffffffffffffffffffffffffff168373ffffffffffffffffffffffffffffffffffffffff161415610757576040517f08c379a000000000000000000000000000000000000000000000000000000000815260040161074e90613a37565b60405180910390fd5b8073ffffffffffffffffffffffffffffffffffffffff166107766110bc565b73ffffffffffffffffffffffffffffffffffffffff1614806107a557506107a48161079f6110bc565b610f42565b5b6107e4576040517f08c379a00000000000000000000000000000000000000000000000000000000081526004016107db90613917565b60405180910390fd5b6107ee83836110c4565b505050565b6000600880549050905090565b61081161080b6110bc565b8261117d565b610850576040517f08c379a000000000000000000000000000000000000000000000000000000000815260040161084790613a57565b60405180910390fd5b61085b83838361125b565b505050565b6000600c6000838152602001908152602001600020600101549050919050565b61088982610860565b61089a816108956110bc565b6114b7565b6108a48383611554565b505050565b60006108b483610bea565b82106108f5576040517f08c379a00000000000000000000000000000000000000000000000000000000081526004016108ec90613837565b60405180910390fd5b600660008473ffffffffffffffffffffffffffffffffffffffff1673ffffffffffffffffffffffffffffffffffffffff168152602001908152602001600020600083815260200190815260200160002054905092915050565b6109566110bc565b73ffffffffffffffffffffffffffffffffffffffff168173ffffffffffffffffffffffffffffffffffffffff16146109c3576040517f08c379a00000000000000000000000000000000000000000000000000000000081526004016109ba90613ab7565b60405180910390fd5b6109cd8282611635565b5050565b7f65d7a28e3265b37a6474929f336521b332c1681b933f6cb9f3376673440d862a610a03816109fe6110bc565b6114b7565b610a0b611717565b50565b610a2983838360405180602001604052806000815250610df9565b505050565b610a3f610a396110bc565b8261117d565b610a7e576040517f08c379a0000000000000000000000000000000000000000000000000000000008152600401610a7590613a97565b60405180910390fd5b610a87816117b9565b50565b6000610a946107f3565b8210610ad5576040517f08c379a0000000000000000000000000000000000000000000000000000000008152600401610acc90613a77565b60405180910390fd5b60088281548110610b0f577f4e487b7100000000000000000000000000000000000000000000000000000000600052603260045260246000fd5b90600052602060002001549050919050565b6000600b60009054906101000a900460ff16905090565b6000806002600084815260200190815260200160002060009054906101000a900473ffffffffffffffffffffffffffffffffffffffff169050600073ffffffffffffffffffffffffffffffffffffffff168173ffffffffffffffffffffffffffffffffffffffff161415610be1576040517f08c379a0000000000000000000000000000000000000000000000000000000008152600401610bd890613957565b60405180910390fd5b80915050919050565b60008073ffffffffffffffffffffffffffffffffffffffff168273ffffffffffffffffffffffffffffffffffffffff161415610c5b576040517f08c379a0000000000000000000000000000000000000000000000000000000008152600401610c5290613937565b60405180910390fd5b600360008373ffffffffffffffffffffffffffffffffffffffff1673ffffffffffffffffffffffffffffffffffffffff168152602001908152602001600020549050919050565b7f65d7a28e3265b37a6474929f336521b332c1681b933f6cb9f3376673440d862a610cd481610ccf6110bc565b6114b7565b610cdc6117c5565b50565b6000600c600084815260200190815260200160002060000160008373ffffffffffffffffffffffffffffffffffffffff1673ffffffffffffffffffffffffffffffffffffffff16815260200190815260200160002060009054906101000a900460ff16905092915050565b606060018054610d5990613dbb565b80601f0160208091040260200160405190810160405280929190818152602001828054610d8590613dbb565b8015610dd25780601f10610da757610100808354040283529160200191610dd2565b820191906000526020600020905b815481529060010190602001808311610db557829003601f168201915b5050505050905090565b6000801b81565b610df5610dee6110bc565b8383611868565b5050565b610e0a610e046110bc565b8361117d565b610e49576040517f08c379a0000000000000000000000000000000000000000000000000000000008152600401610e4090613a57565b60405180910390fd5b610e55848484846119d5565b50505050565b6060610e6682611a31565b9050919050565b7f9f2df0fed2c77648de5860a4cc508cd0818c85b8b8a1ab4ceeef8d981c8956a6610e9f81610e9a6110bc565b6114b7565b6000610eab600d611b83565b9050610eb7600d611b91565b610ec18482611ba7565b610ecb8184611bc5565b50505050565b7f9f2df0fed2c77648de5860a4cc508cd0818c85b8b8a1ab4ceeef8d981c8956a681565b610efe82610860565b610f0f81610f0a6110bc565b6114b7565b610f198383611635565b505050565b7f65d7a28e3265b37a6474929f336521b332c1681b933f6cb9f3376673440d862a81565b6000600560008473ffffffffffffffffffffffffffffffffffffffff1673ffffffffffffffffffffffffffffffffffffffff16815260200190815260200160002060008373ffffffffffffffffffffffffffffffffffffffff1673ffffffffffffffffffffffffffffffffffffffff16815260200190815260200160002060009054906101000a900460ff16905092915050565b60007f7965db0b000000000000000000000000000000000000000000000000000000007bffffffffffffffffffffffffffffffffffffffffffffffffffffffff1916827bffffffffffffffffffffffffffffffffffffffffffffffffffffffff19161480611049575061104882611c39565b5b9050919050565b60008073ffffffffffffffffffffffffffffffffffffffff166002600084815260200190815260200160002060009054906101000a900473ffffffffffffffffffffffffffffffffffffffff1673ffffffffffffffffffffffffffffffffffffffff1614159050919050565b600033905090565b816004600083815260200190815260200160002060006101000a81548173ffffffffffffffffffffffffffffffffffffffff021916908373ffffffffffffffffffffffffffffffffffffffff160217905550808273ffffffffffffffffffffffffffffffffffffffff1661113783610b38565b73ffffffffffffffffffffffffffffffffffffffff167f8c5be1e5ebec7d5bd14f71427d1e84f3dd0314c0f7b2291e5b200ac8c7c3b92560405160405180910390a45050565b600061118882611050565b6111c7576040517f08c379a00000000000000000000000000000000000000000000000000000000081526004016111be906138d7565b60405180910390fd5b60006111d283610b38565b90508073ffffffffffffffffffffffffffffffffffffffff168473ffffffffffffffffffffffffffffffffffffffff16148061124157508373ffffffffffffffffffffffffffffffffffffffff1661122984610656565b73ffffffffffffffffffffffffffffffffffffffff16145b8061125257506112518185610f42565b5b91505092915050565b8273ffffffffffffffffffffffffffffffffffffffff1661127b82610b38565b73ffffffffffffffffffffffffffffffffffffffff16146112d1576040517f08c379a00000000000000000000000000000000000000000000000000000000081526004016112c8906139f7565b60405180910390fd5b600073ffffffffffffffffffffffffffffffffffffffff168273ffffffffffffffffffffffffffffffffffffffff161415611341576040517f08c379a000000000000000000000000000000000000000000000000000000000815260040161133890613897565b60405180910390fd5b61134c838383611cb3565b6113576000826110c4565b6001600360008573ffffffffffffffffffffffffffffffffffffffff1673ffffffffffffffffffffffffffffffffffffffff16815260200190815260200160002060008282546113a79190613c9d565b925050819055506001600360008473ffffffffffffffffffffffffffffffffffffffff1673ffffffffffffffffffffffffffffffffffffffff16815260200190815260200160002060008282546113fe9190613bbc565b92505081905550816002600083815260200190815260200160002060006101000a81548173ffffffffffffffffffffffffffffffffffffffff021916908373ffffffffffffffffffffffffffffffffffffffff160217905550808273ffffffffffffffffffffffffffffffffffffffff168473ffffffffffffffffffffffffffffffffffffffff167fddf252ad1be2c89b69c2b068fc378daa952ba7f163c4a11628f55a4df523b3ef60405160405180910390a4505050565b6114c18282610cdf565b611550576114e68173ffffffffffffffffffffffffffffffffffffffff166014611d0b565b6114f48360001c6020611d0b565b6040516020016115059291906136fe565b6040516020818303038152906040526040517f08c379a000000000000000000000000000000000000000000000000000000000815260040161154791906137d5565b60405180910390fd5b5050565b61155e8282610cdf565b611631576001600c600084815260200190815260200160002060000160008373ffffffffffffffffffffffffffffffffffffffff1673ffffffffffffffffffffffffffffffffffffffff16815260200190815260200160002060006101000a81548160ff0219169083151502179055506115d66110bc565b73ffffffffffffffffffffffffffffffffffffffff168173ffffffffffffffffffffffffffffffffffffffff16837f2f8788117e7eff1d82e926ec794901d17c78024a50270940304540a733656f0d60405160405180910390a45b5050565b61163f8282610cdf565b15611713576000600c600084815260200190815260200160002060000160008373ffffffffffffffffffffffffffffffffffffffff1673ffffffffffffffffffffffffffffffffffffffff16815260200190815260200160002060006101000a81548160ff0219169083151502179055506116b86110bc565b73ffffffffffffffffffffffffffffffffffffffff168173ffffffffffffffffffffffffffffffffffffffff16837ff6391f5c32d9c69d2a47ea670b442974b53935d1edc7fd64eb21e047a839171b60405160405180910390a45b5050565b61171f610b21565b61175e576040517f08c379a000000000000000000000000000000000000000000000000000000000815260040161175590613817565b60405180910390fd5b6000600b60006101000a81548160ff0219169083151502179055507f5db9ee0a495bf2e6ff9c91a7834c1ba4fdd244a5e8aa4e537bd38aeae4b073aa6117a26110bc565b6040516117af9190613738565b60405180910390a1565b6117c281612005565b50565b6117cd610b21565b1561180d576040517f08c379a0000000000000000000000000000000000000000000000000000000008152600401611804906138f7565b60405180910390fd5b6001600b60006101000a81548160ff0219169083151502179055507f62e78cea01bee320cd4e420270b5ea74000d11b0c9f74754ebdbfc544b05a2586118516110bc565b60405161185e9190613738565b60405180910390a1565b8173ffffffffffffffffffffffffffffffffffffffff168373ffffffffffffffffffffffffffffffffffffffff1614156118d7576040517f08c379a00000000000000000000000000000000000000000000000000000000081526004016118ce906138b7565b60405180910390fd5b80600560008573ffffffffffffffffffffffffffffffffffffffff1673ffffffffffffffffffffffffffffffffffffffff16815260200190815260200160002060008473ffffffffffffffffffffffffffffffffffffffff1673ffffffffffffffffffffffffffffffffffffffff16815260200190815260200160002060006101000a81548160ff0219169083151502179055508173ffffffffffffffffffffffffffffffffffffffff168373ffffffffffffffffffffffffffffffffffffffff167f17307eab39ab6107e8899845ad3d59bd9653f200f220920489ca2b5937696c31836040516119c8919061379f565b60405180910390a3505050565b6119e084848461125b565b6119ec84848484612058565b611a2b576040517f08c379a0000000000000000000000000000000000000000000000000000000008152600401611a2290613857565b60405180910390fd5b50505050565b6060611a3c82611050565b611a7b576040517f08c379a0000000000000000000000000000000000000000000000000000000008152600401611a72906139b7565b60405180910390fd5b6000600a60008481526020019081526020016000208054611a9b90613dbb565b80601f0160208091040260200160405190810160405280929190818152602001828054611ac790613dbb565b8015611b145780601f10611ae957610100808354040283529160200191611b14565b820191906000526020600020905b815481529060010190602001808311611af757829003601f168201915b505050505090506000611b256121ef565b9050600081511415611b3b578192505050611b7e565b600082511115611b70578082604051602001611b589291906136da565b60405160208183030381529060405292505050611b7e565b611b7984612206565b925050505b919050565b600081600001549050919050565b6001816000016000828254019250508190555050565b611bc18282604051806020016040528060008152506122ad565b5050565b611bce82611050565b611c0d576040517f08c379a0000000000000000000000000000000000000000000000000000000008152600401611c0490613977565b60405180910390fd5b80600a60008481526020019081526020016000209080519060200190611c34929190612d84565b505050565b60007f780e9d63000000000000000000000000000000000000000000000000000000007bffffffffffffffffffffffffffffffffffffffffffffffffffffffff1916827bffffffffffffffffffffffffffffffffffffffffffffffffffffffff19161480611cac5750611cab82612308565b5b9050919050565b611cbb610b21565b15611cfb576040517f08c379a0000000000000000000000000000000000000000000000000000000008152600401611cf2906138f7565b60405180910390fd5b611d068383836123ea565b505050565b606060006002836002611d1e9190613c43565b611d289190613bbc565b67ffffffffffffffff811115611d67577f4e487b7100000000000000000000000000000000000000000000000000000000600052604160045260246000fd5b6040519080825280601f01601f191660200182016040528015611d995781602001600182028036833780820191505090505b5090507f300000000000000000000000000000000000000000000000000000000000000081600081518110611df7577f4e487b7100000000000000000000000000000000000000000000000000000000600052603260045260246000fd5b60200101907effffffffffffffffffffffffffffffffffffffffffffffffffffffffffffff1916908160001a9053507f780000000000000000000000000000000000000000000000000000000000000081600181518110611e81577f4e487b7100000000000000000000000000000000000000000000000000000000600052603260045260246000fd5b60200101907effffffffffffffffffffffffffffffffffffffffffffffffffffffffffffff1916908160001a90535060006001846002611ec19190613c43565b611ecb9190613bbc565b90505b6001811115611fb7577f3031323334353637383961626364656600000000000000000000000000000000600f861660108110611f33577f4e487b7100000000000000000000000000000000000000000000000000000000600052603260045260246000fd5b1a60f81b828281518110611f70577f4e487b7100000000000000000000000000000000000000000000000000000000600052603260045260246000fd5b60200101907effffffffffffffffffffffffffffffffffffffffffffffffffffffffffffff1916908160001a905350600485901c945080611fb090613d91565b9050611ece565b5060008414611ffb576040517f08c379a0000000000000000000000000000000000000000000000000000000008152600401611ff2906137f7565b60405180910390fd5b8091505092915050565b61200e816124fe565b6000600a6000838152602001908152602001600020805461202e90613dbb565b90501461205557600a600082815260200190815260200160002060006120549190612e0a565b5b50565b60006120798473ffffffffffffffffffffffffffffffffffffffff1661260f565b156121e2578373ffffffffffffffffffffffffffffffffffffffff1663150b7a026120a26110bc565b8786866040518563ffffffff1660e01b81526004016120c49493929190613753565b602060405180830381600087803b1580156120de57600080fd5b505af192505050801561210f57506040513d601f19601f8201168201806040525081019061210c919061323e565b60015b612192573d806000811461213f576040519150601f19603f3d011682016040523d82523d6000602084013e612144565b606091505b5060008151141561218a576040517f08c379a000000000000000000000000000000000000000000000000000000000815260040161218190613857565b60405180910390fd5b805181602001fd5b63150b7a0260e01b7bffffffffffffffffffffffffffffffffffffffffffffffffffffffff1916817bffffffffffffffffffffffffffffffffffffffffffffffffffffffff1916149150506121e7565b600190505b949350505050565b606060405180602001604052806000815250905090565b606061221182611050565b612250576040517f08c379a000000000000000000000000000000000000000000000000000000000815260040161224790613a17565b60405180910390fd5b600061225a6121ef565b9050600081511161227a57604051806020016040528060008152506122a5565b8061228484612622565b6040516020016122959291906136da565b6040516020818303038152906040525b915050919050565b6122b783836127cf565b6122c46000848484612058565b612303576040517f08c379a00000000000000000000000000000000000000000000000000000000081526004016122fa90613857565b60405180910390fd5b505050565b60007f80ac58cd000000000000000000000000000000000000000000000000000000007bffffffffffffffffffffffffffffffffffffffffffffffffffffffff1916827bffffffffffffffffffffffffffffffffffffffffffffffffffffffff191614806123d357507f5b5e139f000000000000000000000000000000000000000000000000000000007bffffffffffffffffffffffffffffffffffffffffffffffffffffffff1916827bffffffffffffffffffffffffffffffffffffffffffffffffffffffff1916145b806123e357506123e28261299d565b5b9050919050565b6123f5838383612a07565b600073ffffffffffffffffffffffffffffffffffffffff168373ffffffffffffffffffffffffffffffffffffffff1614156124385761243381612a0c565b612477565b8173ffffffffffffffffffffffffffffffffffffffff168373ffffffffffffffffffffffffffffffffffffffff1614612476576124758382612a55565b5b5b600073ffffffffffffffffffffffffffffffffffffffff168273ffffffffffffffffffffffffffffffffffffffff1614156124ba576124b581612bc2565b6124f9565b8273ffffffffffffffffffffffffffffffffffffffff168273ffffffffffffffffffffffffffffffffffffffff16146124f8576124f78282612d05565b5b5b505050565b600061250982610b38565b905061251781600084611cb3565b6125226000836110c4565b6001600360008373ffffffffffffffffffffffffffffffffffffffff1673ffffffffffffffffffffffffffffffffffffffff16815260200190815260200160002060008282546125729190613c9d565b925050819055506002600083815260200190815260200160002060006101000a81549073ffffffffffffffffffffffffffffffffffffffff021916905581600073ffffffffffffffffffffffffffffffffffffffff168273ffffffffffffffffffffffffffffffffffffffff167fddf252ad1be2c89b69c2b068fc378daa952ba7f163c4a11628f55a4df523b3ef60405160405180910390a45050565b600080823b905060008111915050919050565b6060600082141561266a576040518060400160405280600181526020017f300000000000000000000000000000000000000000000000000000000000000081525090506127ca565b600082905060005b6000821461269c57808061268590613e1e565b915050600a826126959190613c12565b9150612672565b60008167ffffffffffffffff8111156126de577f4e487b7100000000000000000000000000000000000000000000000000000000600052604160045260246000fd5b6040519080825280601f01601f1916602001820160405280156127105781602001600182028036833780820191505090505b5090505b600085146127c3576001826127299190613c9d565b9150600a856127389190613e67565b60306127449190613bbc565b60f81b818381518110612780577f4e487b7100000000000000000000000000000000000000000000000000000000600052603260045260246000fd5b60200101907effffffffffffffffffffffffffffffffffffffffffffffffffffffffffffff1916908160001a905350600a856127bc9190613c12565b9450612714565b8093505050505b919050565b600073ffffffffffffffffffffffffffffffffffffffff168273ffffffffffffffffffffffffffffffffffffffff16141561283f576040517f08c379a000000000000000000000000000000000000000000000000000000000815260040161283690613997565b60405180910390fd5b61284881611050565b15612888576040517f08c379a000000000000000000000000000000000000000000000000000000000815260040161287f90613877565b60405180910390fd5b61289460008383611cb3565b6001600360008473ffffffffffffffffffffffffffffffffffffffff1673ffffffffffffffffffffffffffffffffffffffff16815260200190815260200160002060008282546128e49190613bbc565b92505081905550816002600083815260200190815260200160002060006101000a81548173ffffffffffffffffffffffffffffffffffffffff021916908373ffffffffffffffffffffffffffffffffffffffff160217905550808273ffffffffffffffffffffffffffffffffffffffff16600073ffffffffffffffffffffffffffffffffffffffff167fddf252ad1be2c89b69c2b068fc378daa952ba7f163c4a11628f55a4df523b3ef60405160405180910390a45050565b60007f01ffc9a7000000000000000000000000000000000000000000000000000000007bffffffffffffffffffffffffffffffffffffffffffffffffffffffff1916827bffffffffffffffffffffffffffffffffffffffffffffffffffffffff1916149050919050565b505050565b6008805490506009600083815260200190815260200160002081905550600881908060018154018082558091505060019003906000526020600020016000909190919091505550565b60006001612a6284610bea565b612a6c9190613c9d565b9050600060076000848152602001908152602001600020549050818114612b51576000600660008673ffffffffffffffffffffffffffffffffffffffff1673ffffffffffffffffffffffffffffffffffffffff168152602001908152602001600020600084815260200190815260200160002054905080600660008773ffffffffffffffffffffffffffffffffffffffff1673ffffffffffffffffffffffffffffffffffffffff168152602001908152602001600020600084815260200190815260200160002081905550816007600083815260200190815260200160002081905550505b6007600084815260200190815260200160002060009055600660008573ffffffffffffffffffffffffffffffffffffffff1673ffffffffffffffffffffffffffffffffffffffff16815260200190815260200160002060008381526020019081526020016000206000905550505050565b60006001600880549050612bd69190613c9d565b9050600060096000848152602001908152602001600020549050600060088381548110612c2c577f4e487b7100000000000000000000000000000000000000000000000000000000600052603260045260246000fd5b906000526020600020015490508060088381548110612c74577f4e487b7100000000000000000000000000000000000000000000000000000000600052603260045260246000fd5b906000526020600020018190555081600960008381526020019081526020016000208190555060096000858152602001908152602001600020600090556008805480612ce9577f4e487b7100000000000000000000000000000000000000000000000000000000600052603160045260246000fd5b6001900381819060005260206000200160009055905550505050565b6000612d1083610bea565b905081600660008573ffffffffffffffffffffffffffffffffffffffff1673ffffffffffffffffffffffffffffffffffffffff168152602001908152602001600020600083815260200190815260200160002081905550806007600084815260200190815260200160002081905550505050565b828054612d9090613dbb565b90600052602060002090601f016020900481019282612db25760008555612df9565b82601f10612dcb57805160ff1916838001178555612df9565b82800160010185558215612df9579182015b82811115612df8578251825591602001919060010190612ddd565b5b509050612e069190612e4a565b5090565b508054612e1690613dbb565b6000825580601f10612e285750612e47565b601f016020900490600052602060002090810190612e469190612e4a565b5b50565b5b80821115612e63576000816000905550600101612e4b565b5090565b6000612e7a612e7584613b17565b613af2565b905082815260208101848484011115612e9257600080fd5b612e9d848285613d4f565b509392505050565b6000612eb8612eb384613b48565b613af2565b905082815260208101848484011115612ed057600080fd5b612edb848285613d4f565b509392505050565b600081359050612ef2816145ec565b92915050565b600081359050612f0781614603565b92915050565b600081359050612f1c8161461a565b92915050565b600081359050612f3181614631565b92915050565b600081519050612f4681614631565b92915050565b600082601f830112612f5d57600080fd5b8135612f6d848260208601612e67565b91505092915050565b600082601f830112612f8757600080fd5b8135612f97848260208601612ea5565b91505092915050565b600081359050612faf81614648565b92915050565b600060208284031215612fc757600080fd5b6000612fd584828501612ee3565b91505092915050565b60008060408385031215612ff157600080fd5b6000612fff85828601612ee3565b925050602061301085828601612ee3565b9150509250929050565b60008060006060848603121561302f57600080fd5b600061303d86828701612ee3565b935050602061304e86828701612ee3565b925050604061305f86828701612fa0565b9150509250925092565b6000806000806080858703121561307f57600080fd5b600061308d87828801612ee3565b945050602061309e87828801612ee3565b93505060406130af87828801612fa0565b925050606085013567ffffffffffffffff8111156130cc57600080fd5b6130d887828801612f4c565b91505092959194509250565b600080604083850312156130f757600080fd5b600061310585828601612ee3565b925050602061311685828601612ef8565b9150509250929050565b6000806040838503121561313357600080fd5b600061314185828601612ee3565b925050602083013567ffffffffffffffff81111561315e57600080fd5b61316a85828601612f76565b9150509250929050565b6000806040838503121561318757600080fd5b600061319585828601612ee3565b92505060206131a685828601612fa0565b9150509250929050565b6000602082840312156131c257600080fd5b60006131d084828501612f0d565b91505092915050565b600080604083850312156131ec57600080fd5b60006131fa85828601612f0d565b925050602061320b85828601612ee3565b9150509250929050565b60006020828403121561322757600080fd5b600061323584828501612f22565b91505092915050565b60006020828403121561325057600080fd5b600061325e84828501612f37565b91505092915050565b60006020828403121561327957600080fd5b600061328784828501612fa0565b91505092915050565b61329981613cd1565b82525050565b6132a881613ce3565b82525050565b6132b781613cef565b82525050565b60006132c882613b79565b6132d28185613b8f565b93506132e2818560208601613d5e565b6132eb81613f54565b840191505092915050565b600061330182613b84565b61330b8185613ba0565b935061331b818560208601613d5e565b61332481613f54565b840191505092915050565b600061333a82613b84565b6133448185613bb1565b9350613354818560208601613d5e565b80840191505092915050565b600061336d602083613ba0565b915061337882613f65565b602082019050919050565b6000613390601483613ba0565b915061339b82613f8e565b602082019050919050565b60006133b3602b83613ba0565b91506133be82613fb7565b604082019050919050565b60006133d6603283613ba0565b91506133e182614006565b604082019050919050565b60006133f9601c83613ba0565b915061340482614055565b602082019050919050565b600061341c602483613ba0565b91506134278261407e565b604082019050919050565b600061343f601983613ba0565b915061344a826140cd565b602082019050919050565b6000613462602c83613ba0565b915061346d826140f6565b604082019050919050565b6000613485601083613ba0565b915061349082614145565b602082019050919050565b60006134a8603883613ba0565b91506134b38261416e565b604082019050919050565b60006134cb602a83613ba0565b91506134d6826141bd565b604082019050919050565b60006134ee602983613ba0565b91506134f98261420c565b604082019050919050565b6000613511602e83613ba0565b915061351c8261425b565b604082019050919050565b6000613534602083613ba0565b915061353f826142aa565b602082019050919050565b6000613557603183613ba0565b9150613562826142d3565b604082019050919050565b600061357a602c83613ba0565b915061358582614322565b604082019050919050565b600061359d602983613ba0565b91506135a882614371565b604082019050919050565b60006135c0602f83613ba0565b91506135cb826143c0565b604082019050919050565b60006135e3602183613ba0565b91506135ee8261440f565b604082019050919050565b6000613606603183613ba0565b91506136118261445e565b604082019050919050565b6000613629602c83613ba0565b9150613634826144ad565b604082019050919050565b600061364c601783613bb1565b9150613657826144fc565b601782019050919050565b600061366f603083613ba0565b915061367a82614525565b604082019050919050565b6000613692601183613bb1565b915061369d82614574565b601182019050919050565b60006136b5602f83613ba0565b91506136c08261459d565b604082019050919050565b6136d481613d45565b82525050565b60006136e6828561332f565b91506136f2828461332f565b91508190509392505050565b60006137098261363f565b9150613715828561332f565b915061372082613685565b915061372c828461332f565b91508190509392505050565b600060208201905061374d6000830184613290565b92915050565b60006080820190506137686000830187613290565b6137756020830186613290565b61378260408301856136cb565b818103606083015261379481846132bd565b905095945050505050565b60006020820190506137b4600083018461329f565b92915050565b60006020820190506137cf60008301846132ae565b92915050565b600060208201905081810360008301526137ef81846132f6565b905092915050565b6000602082019050818103600083015261381081613360565b9050919050565b6000602082019050818103600083015261383081613383565b9050919050565b60006020820190508181036000830152613850816133a6565b9050919050565b60006020820190508181036000830152613870816133c9565b9050919050565b60006020820190508181036000830152613890816133ec565b9050919050565b600060208201905081810360008301526138b08161340f565b9050919050565b600060208201905081810360008301526138d081613432565b9050919050565b600060208201905081810360008301526138f081613455565b9050919050565b6000602082019050818103600083015261391081613478565b9050919050565b600060208201905081810360008301526139308161349b565b9050919050565b60006020820190508181036000830152613950816134be565b9050919050565b60006020820190508181036000830152613970816134e1565b9050919050565b6000602082019050818103600083015261399081613504565b9050919050565b600060208201905081810360008301526139b081613527565b9050919050565b600060208201905081810360008301526139d08161354a565b9050919050565b600060208201905081810360008301526139f08161356d565b9050919050565b60006020820190508181036000830152613a1081613590565b9050919050565b60006020820190508181036000830152613a30816135b3565b9050919050565b60006020820190508181036000830152613a50816135d6565b9050919050565b60006020820190508181036000830152613a70816135f9565b9050919050565b60006020820190508181036000830152613a908161361c565b9050919050565b60006020820190508181036000830152613ab081613662565b9050919050565b60006020820190508181036000830152613ad0816136a8565b9050919050565b6000602082019050613aec60008301846136cb565b92915050565b6000613afc613b0d565b9050613b088282613ded565b919050565b6000604051905090565b600067ffffffffffffffff821115613b3257613b31613f25565b5b613b3b82613f54565b9050602081019050919050565b600067ffffffffffffffff821115613b6357613b62613f25565b5b613b6c82613f54565b9050602081019050919050565b600081519050919050565b600081519050919050565b600082825260208201905092915050565b600082825260208201905092915050565b600081905092915050565b6000613bc782613d45565b9150613bd283613d45565b9250827fffffffffffffffffffffffffffffffffffffffffffffffffffffffffffffffff03821115613c0757613c06613e98565b5b828201905092915050565b6000613c1d82613d45565b9150613c2883613d45565b925082613c3857613c37613ec7565b5b828204905092915050565b6000613c4e82613d45565b9150613c5983613d45565b9250817fffffffffffffffffffffffffffffffffffffffffffffffffffffffffffffffff0483118215151615613c9257613c91613e98565b5b828202905092915050565b6000613ca882613d45565b9150613cb383613d45565b925082821015613cc657613cc5613e98565b5b828203905092915050565b6000613cdc82613d25565b9050919050565b60008115159050919050565b6000819050919050565b60007fffffffff0000000000000000000000000000000000000000000000000000000082169050919050565b600073ffffffffffffffffffffffffffffffffffffffff82169050919050565b6000819050919050565b82818337600083830152505050565b60005b83811015613d7c578082015181840152602081019050613d61565b83811115613d8b576000848401525b50505050565b6000613d9c82613d45565b91506000821415613db057613daf613e98565b5b600182039050919050565b60006002820490506001821680613dd357607f821691505b60208210811415613de757613de6613ef6565b5b50919050565b613df682613f54565b810181811067ffffffffffffffff82111715613e1557613e14613f25565b5b80604052505050565b6000613e2982613d45565b91507fffffffffffffffffffffffffffffffffffffffffffffffffffffffffffffffff821415613e5c57613e5b613e98565b5b600182019050919050565b6000613e7282613d45565b9150613e7d83613d45565b925082613e8d57613e8c613ec7565b5b828206905092915050565b7f4e487b7100000000000000000000000000000000000000000000000000000000600052601160045260246000fd5b7f4e487b7100000000000000000000000000000000000000000000000000000000600052601260045260246000fd5b7f4e487b7100000000000000000000000000000000000000000000000000000000600052602260045260246000fd5b7f4e487b7100000000000000000000000000000000000000000000000000000000600052604160045260246000fd5b6000601f19601f8301169050919050565b7f537472696e67733a20686578206c656e67746820696e73756666696369656e74600082015250565b7f5061757361626c653a206e6f7420706175736564000000000000000000000000600082015250565b7f455243373231456e756d657261626c653a206f776e657220696e646578206f7560008201527f74206f6620626f756e6473000000000000000000000000000000000000000000602082015250565b7f4552433732313a207472616e7366657220746f206e6f6e20455243373231526560008201527f63656976657220696d706c656d656e7465720000000000000000000000000000602082015250565b7f4552433732313a20746f6b656e20616c7265616479206d696e74656400000000600082015250565b7f4552433732313a207472616e7366657220746f20746865207a65726f2061646460008201527f7265737300000000000000000000000000000000000000000000000000000000602082015250565b7f4552433732313a20617070726f766520746f2063616c6c657200000000000000600082015250565b7f4552433732313a206f70657261746f7220717565727920666f72206e6f6e657860008201527f697374656e7420746f6b656e0000000000000000000000000000000000000000602082015250565b7f5061757361626c653a2070617573656400000000000000000000000000000000600082015250565b7f4552433732313a20617070726f76652063616c6c6572206973206e6f74206f7760008201527f6e6572206e6f7220617070726f76656420666f7220616c6c0000000000000000602082015250565b7f4552433732313a2062616c616e636520717565727920666f7220746865207a6560008201527f726f206164647265737300000000000000000000000000000000000000000000602082015250565b7f4552433732313a206f776e657220717565727920666f72206e6f6e657869737460008201527f656e7420746f6b656e0000000000000000000000000000000000000000000000602082015250565b7f45524337323155524953746f726167653a2055524920736574206f66206e6f6e60008201527f6578697374656e7420746f6b656e000000000000000000000000000000000000602082015250565b7f4552433732313a206d696e7420746f20746865207a65726f2061646472657373600082015250565b7f45524337323155524953746f726167653a2055524920717565727920666f722060008201527f6e6f6e6578697374656e7420746f6b656e000000000000000000000000000000602082015250565b7f4552433732313a20617070726f76656420717565727920666f72206e6f6e657860008201527f697374656e7420746f6b656e0000000000000000000000000000000000000000602082015250565b7f4552433732313a207472616e73666572206f6620746f6b656e2074686174206960008201527f73206e6f74206f776e0000000000000000000000000000000000000000000000602082015250565b7f4552433732314d657461646174613a2055524920717565727920666f72206e6f60008201527f6e6578697374656e7420746f6b656e0000000000000000000000000000000000602082015250565b7f4552433732313a20617070726f76616c20746f2063757272656e74206f776e6560008201527f7200000000000000000000000000000000000000000000000000000000000000602082015250565b7f4552433732313a207472616e736665722063616c6c6572206973206e6f74206f60008201527f776e6572206e6f7220617070726f766564000000000000000000000000000000602082015250565b7f455243373231456e756d657261626c653a20676c6f62616c20696e646578206f60008201527f7574206f6620626f756e64730000000000000000000000000000000000000000602082015250565b7f416363657373436f6e74726f6c3a206163636f756e7420000000000000000000600082015250565b7f4552433732314275726e61626c653a2063616c6c6572206973206e6f74206f7760008201527f6e6572206e6f7220617070726f76656400000000000000000000000000000000602082015250565b7f206973206d697373696e6720726f6c6520000000000000000000000000000000600082015250565b7f416363657373436f6e74726f6c3a2063616e206f6e6c792072656e6f756e636560008201527f20726f6c657320666f722073656c660000000000000000000000000000000000602082015250565b6145f581613cd1565b811461460057600080fd5b50565b61460c81613ce3565b811461461757600080fd5b50565b61462381613cef565b811461462e57600080fd5b50565b61463a81613cf9565b811461464557600080fd5b50565b61465181613d45565b811461465c57600080fd5b5056fea264697066735822122040f4d6c656632599de35024572c6a745b23e48fb26250208a4887fa7830feb6864736f6c63430008020033",
	"linkReferences": {},
	"deployedLinkReferences": {}
}